:020000040800F2
:1000000000880020C90100084B02000843020008D4
:10001000470200083D0200086104000800000000DB
:10002000000000000000000000000000870300083E
:1000300041020008000000004D020008890300088A
:10004000E3010008E3010008E3010008E301000800
:10005000E3010008E3010008E3010008E3010008F0
:10006000E3010008E3010008E3010008E3010008E0
:10007000E3010008E3010008E3010008E3010008D0
:10008000E3010008E3010008E3010008E3010008C0
:10009000E3010008E3010008E3010008E3010008B0
:1000A000E3010008E3010008E3010008E3010008A0
:1000B000E3010008E3010008E3010008E301000890
:1000C000E3010008E3010008E3010008E301000880
:1000D000E3010008E3010008E30100081D04000833
:1000E000E3010008E3010008E3010008E301000860
:1000F000E3010008E3010008E3010008E301000850
:10010000E3010008E3010008E3010008E30100083F
:10011000E3010008E3010008E3010008E30100082F
:10012000E3010008E3010008E3010008E30100081F
:10013000E3010008E3010008E3010008E30100080F
:10014000E3010008E3010008E3010008E3010008FF
:1001500000000000E3010008E3010008E3010008DB
:10016000E3010008E30100080000000000000000B7
:100170000000000000000000E3010008E3010008A7
:10018000E301000800000000E3010008E3010008AB
:10019000000000000000000000000000000000005F
:1001A000E3010008E3010008DFF810D000F034F8A4
:1001B00000480047C90A0008AFF30080008800200B
:1001C00080F30888704700000648804706480047CB
:1001D000FEE7FEE7FEE7FEE7FEE7FEE7FEE7FEE7F7
:1001E000FEE7FEE78D030008A901000830B50B46C5
:1001F000014600202022012409E021FA02F59D4257
:1002000005D303FA02F5491B04FA02F52844151E2A
:10021000A2F10102F1DC30BD064C074D06E0E068BA
:1002200040F0010394E8070098471034AC42F6D33D
:10023000FFF7BEFF6C1600088C16000800BFFEE733
:10024000704700BFFEE700BFFEE77047704730B55C
:1002500003460C461546002207E0184600F008F851
:1002600024F812009B1C501C82B2AA42F5DB30BD60
:1002700001460888704700002DE9F05F80468A46F5
:100280001746B8F1006F02D33348804501D3BDE86B
:10029000F09F00F01DFBA8F1006B4FEADB25CBF3CC
:1002A0004909C9F58064A74200DC3C464DE04FF0A7
:1002B000006101EBC5204A142849FFF7C8FF00265A
:1002C0000BE009EB0600254931F810004FF6FF71ED
:1002D000884200D003E0701C86B2A642F1DB00BF6A
:1002E000A6421BDA4FF0006101EBC52000F074FA62
:1002F000002608E03AF8160006EB0901174A22F832
:100300001100701C86B2A642F4DB4FF0006101EBD5
:10031000C5204A14114900F023F804E02246514652
:10032000404600F01DF8A74200D10FE06D1C4FF0D1
:1003300000090AEB440AA044381B87B2B7F5806F66
:1003400002DD4FF4806400E03C46B0E700BF00F0FF
:100350002DFA00BF9BE700000000040820000020E9
:100360002DE9F04105460E461746002407E036F811
:100370001410284600F0BAF9AD1C601C84B2BC42CF
:10038000F5DBBDE8F08170477047000010B51E48EE
:10039000006840F001001C490860084640681B499D
:1003A000084019494860084600681949084016493C
:1003B00008600846006820F480200860084640680D
:1003C00014490840104948600846006820F0A050D1
:1003D00008600020C8624FF47F00886000200A494E
:1003E000803108600848D0F8900020F0805006491D
:1003F000903108604FF48000091D08600648091D0F
:10040000086000F053FF10BD001002400C00FFE038
:10041000FFFFF6FEFFFF00DF1030002010B50C4993
:100420000C4801F0DAF888B10A4801F029F8C4B2A2
:1004300009480068B0F5A04F08D208480649096885
:10044000445405480068401C0349086010BD000082
:1004500005030500004800400C00002000100020AB
:1004600000BFFEE70FB4054B10B503A9044A02987C
:1004700000F018F810BC5DF814FB00001509000826
:100480001C00002002E008C8121F08C1002AFAD18F
:1004900070477047002001E001C1121F002AFBD104
:1004A000704700002DE9FF4F89B09B4604460025A8
:1004B00006E025280BD05A460B999047641C6D1C0A
:1004C00020780028F5D10DB02846BDE8F08F002730
:1004D000B8460122474900E0074314F8013F203B9A
:1004E00002FA03F00842F7D120782E2819D114F827
:1004F000010F47F004072A280ED06FF02F02207852
:10050000A0F1300109290CD808EB880102EB410168
:1005100000EB0108641CF2E70A98641C50F8048B95
:100520000A9020780028CED0642808D0692806D008
:1005300075281ED05A460B9990476D1C58E00A99B1
:100540004FF00A0901C90A91002802DA40422D2120
:1005500002E0390504D52B218DF82010012103E09C
:10056000F90704D02021F7E78A4608AE0DE0002104
:10057000FAE70A994FF00A0901C90A91F7E74946D3
:10058000FFF734FE303106F8011D0028F7D1ADEB3E
:10059000060000F12009780701D44FF00108C84592
:1005A00002DDA8EB090000E000208046002706E0FD
:1005B00008A85A46C05D0B9990476D1C7F1C574593
:1005C000F6DB04E030205A460B9990476D1CB8F1D9
:1005D0000001A8F10108F5DC05E016F8010B5A4608
:1005E0000B9990476D1CB9F10001A9F10109F4DCE8
:1005F000641C65E7092801000146114A12884A4334
:100600004FF0E0235A6100229A611A46126942F0C3
:1006100001021A6100BF4FF0E022106900F00102F0
:100620001AB100F48032002AF5D04FF0E0221269AE
:1006300022F001024FF0E0231A6100229A61704714
:100640000400002070B50546012400BF00F00CF83E
:1006500004466D1E012C01D1002DF7D1012C00D1D3
:100660000424204670BD000000200A49C96801F03A
:10067000010109B101200CE00649C96801F010012F
:1006800009B1032005E00349C96801F0040101B183
:10069000022070470020024070B50546012400BFCB
:1006A00000F00CF804466D1E012C01D1002DF7D18D
:1006B000012C00D10424204670BD000000200A490E
:1006C000C96C01F0010109B101200CE00649C96CB7
:1006D00001F0100109B1032005E00349C96C01F0E4
:1006E000040101B1022070470020024070B50446A9
:1006F0000D4600262A480088B0F5007F35D92948E4
:10070000844219D24FF47020FFF79CFF0646002E5A
:1007100043D12548006940F0010023490861258044
:100720004FF47020FFF78EFF06461F48006920F047
:1007300001001D49086130E04FF47020FFF7ACFF65
:10074000064656BB1848006D40F001001649086582
:1007500025804FF47020FFF79FFF06461248006D7A
:1007600020F001001049086517E04FF47020FFF7F2
:1007700069FF06468EB90C48006940F001000A493D
:10078000086125804FF47020FFF75CFF064606489D
:10079000006920F0010004490861304670BD000086
:1007A000E0F7FF1FFFFF070800200240084800692C
:1007B00040F080000649086106480088B0F5007FD7
:1007C00004D90846006D40F08000086570470000BD
:1007D00000200240E0F7FF1F70B505463948008849
:1007E000B0F5007F4CD93848854220D24FF47020B4
:1007F000FFF728FF0446002C61D13448006940F01F
:1008000002003249086108464561006940F0400035
:10081000086100BF00BF4FF47020FFF713FF0446CC
:100820002A48006920F002002849086147E04FF497
:100830007020FFF731FF0446002C40D12348006DA3
:1008400040F002002149086508464565C06900F08E
:10085000020008B1084645611C48006D40F04000A8
:100860001A49086500BF00BF4FF47020FFF714FF5E
:1008700004461648006D20F00200144908651EE089
:100880004FF47020FFF7DEFE0446C4B90F4800693C
:1008900040F002000D49086108464561006940F0DA
:1008A0004000086100BF00BF4FF47020FFF7CAFE90
:1008B00004460648006920F0020004490861204609
:1008C00070BD0000E0F7FF1FFFFF07080020024097
:1008D0000C48006900F0800020B10B4809494860CD
:1008E0000A4848600A480088B0F5007F09D90548E1
:1008F000006D00F0800020B10348024948640348BD
:10090000486470470020024023016745AB89EFCD62
:10091000E0F7FF1F70B504460D46E1B2054800F050
:10092000B4FD00BF0721034800F027FE0028F9D0DE
:10093000204670BD0048004041617047016170472A
:10094000F0B5044616460025002201F00F0501F01F
:10095000100707B1354300201EE0012787401F40E4
:10096000C7B122684FEA800C0F2707FA0CF7BA4389
:10097000870005FA07F73A43282904D10127874061
:100980001F40676105E0482903D1012787401F40C8
:1009900027612260471CB8B20828DED3082022E075
:1009A000012787401F40E7B16268A0F108074FEABE
:1009B000870C0F2707FA0CF7BA43A0F10807BF000E
:1009C00005FA07F73A43282904D1012787401F4039
:1009D000676105E0482903D1012787401F4027614F
:1009E0006260471CB8B21028DAD3F0BD10B50446D7
:1009F000206807490840B0F1005F08D160680549E8
:100A000008602068FFF7DCFB02480068804710BDE3
:100A10000000FE2F140000202DE9F05F06460F466F
:100A200090460024B3463D46A1461CE068784FEA54
:100A3000002A287850441FFA80FAAD1C2046611C19
:100A40008CB20E4921F810A0B4F5806F07D10024B4
:100A50004FF480625846FFF70FFC0BF5006B09F16D
:100A600002001FFA80F9C145E0D324B122460349B0
:100A70005846FFF701FCBDE8F09F00000060002031
:100A800010B540F2046000F06FFB40F2056000F02A
:100A90006BFB4FF48043032210210948FFF750FFFE
:100AA0000423032210210748FFF74AFF4FF4804137
:100AB0000348FFF741FF04210248FFF73FFF10BD45
:100AC00000100140001401404FF0000800240025F0
:100AD0000026002700F002FC00F084FCFFF7D0FFA6
:100AE000DBE04FF480416D48FFF728FF4FF4FA70C8
:100AF000FFF782FD4FF480416848FFF71DFF4FF478
:100B0000FA70FFF779FD6648006800286BD06448EA
:100B1000016864A0FFF7A6FC6148006880455FD1CA
:100B20005F480568002E3FD1052D3DD16348007810
:100B3000AA2815D161484078AA2811D15F48807849
:100B4000AA280DD15D48C078AA2809D15B48007950
:100B5000AA2805D10126002559A0FFF783FC39E01A
:100B600056480078AA2817D154484078AA2813D1AB
:100B700052488078AA280FD15048C078AA280BD1B3
:100B80004E480079BB2807D100275BA0FFF76AFC1D
:100B90005E48FFF72BFF1DE000205D490870002430
:100BA0005CA0FFF75FFC15E0012E0FD10A2D0DD9D7
:100BB0000120574908700026394804685AA0FFF7F9
:100BC00051FC214660A0FFF74DFC03E0002563A027
:100BD000FFF748FC4FF0000800203149086002E0B0
:100BE0002F48D0F800804A48007800283FD00020E5
:100BF00047490870002C37D060A0FFF733FC6548E8
:100C0000406800F07F40B0F1006F29D122462B49A7
:100C10003E48FFF701FF60A0FFF724FC4FF47A7015
:100C2000FFF7EAFC6AA0FFF71DFC4FF47A70FFF7AC
:100C3000E3FC75A0FFF716FC4FF47A70FFF7DCFCBD
:100C40007FA0FFF70FFC4FF47A70FFF7D5FC8AA066
:100C5000FFF708FC4FF47A70FFF7CEFC012706E09F
:100C600093A0FFF7FFFB02E0A1A0FFF7FBFBA7B1FA
:100C7000A5A0FFF7F7FB0A20FFF7BEFC234840685A
:100C800000F07F40B0F1006F04D100271F48FFF74C
:100C9000ADFE02E0A3A0FFF7E5FB22E70010014054
:100CA0000C00002055534152545F52585F434E543C
:100CB000203D202564200D0A0000000000100020C7
:100CC000526561647920746F207265636965766529
:100CD0002061707020636F64652C706C6561736552
:100CE0002061646420612062696E617279206669A6
:100CF0006C65210D0A0000004265666F7265206612
:100D0000696E697368204941500D0A0000000108AE
:100D100010000020436F6D6D616E64204572726F2C
:100D200072210D0A0000000041707020636F64653D
:100D3000207265636965766520636F6D706C65749C
:100D400065210D0A00000000436F64652073697A15
:100D5000653A256442797465730D0A004E6F7420FC
:100D6000636F72726563742066696C65206F7220B0
:100D7000636F6D6D616E64210D0A000055706461D2
:100D800074696E672061707020636F64652E2E2E0B
:100D90000D0A000000100020436F64652055706448
:100DA00061746520436F6D706C657465214A756D63
:100DB0007020746F2041707020436F646520496E0D
:100DC0002035207365636F6E64210D0A00000000FA
:100DD000436F64652055706461746520436F6D7066
:100DE0006C657465214A756D7020746F2041707058
:100DF00020436F646520496E2034207365636F6EF5
:100E000064210D0A00000000436F64652055706482
:100E100061746520436F6D706C657465214A756DF2
:100E20007020746F2041707020436F646520496E9C
:100E30002033207365636F6E64210D0A000000008B
:100E4000436F64652055706461746520436F6D70F5
:100E50006C657465214A756D7020746F20417070E7
:100E600020436F646520496E2032207365636F6E86
:100E700064210D0A00000000436F64652055706412
:100E800061746520436F6D706C657465214A756D82
:100E90007020746F2041707020436F646520496E2C
:100EA0002031207365636F6E64210D0A000000001D
:100EB000436F646520757064617465206661696C58
:100EC000656421506C6561736520636865636B20A0
:100ED0006C6567616C697479206F66207468652041
:100EE00062696E6172792066696C65210D0A000085
:100EF0004E6F20436F64652043616E2055706461BE
:100F00007465210D0A0000005374617274207275BB
:100F10006E6E696E672061707020636F6465210D6D
:100F20000A00000041707020636F646520697320BF
:100F3000696C6C6567616C210D0A00002DE9F04158
:100F400003460D46164600240027A04624480068A4
:100F500000F4E060B0F5A06F15D006DCB0F5407F7E
:100F600018D0B0F5806F19D110E0B0F5C06F06D081
:100F7000B0F5E06F12D100274FF0040815E001270B
:100F80004FF0030811E00227B8460EE003274FF0A8
:100F900001080AE004274FF0000806E04FF4A060C3
:100FA00000F022F80227B84600BF00BFC7F10400D6
:100FB00005FA00F4C8F104010F20C8403040044392
:100FC00024010848C45403F01F010120884059112E
:100FD000890001F1E021C1F80001BDE8F0810000C5
:100FE0000CED00E000E400E002490143024A116018
:100FF000704700000000FA050CED00E02DE9F14F0C
:101000008DB000200B9051A090E8004CC068CDE955
:1010100005BECDF810A007900FF2341ADAE9000AE5
:10102000CDE9020A0FF2281ADAE9000ACDE9000A2E
:101030004A484068C0F381000C900C9820B1012808
:1010400004D002284ED103E045494DE044494BE02D
:101050004248406800F48039B9F5803F26D1404BC2
:101060003E48C06A00F480300A900A98B0F5803F8C
:1010700012D13A48C06AC0F30310401C08903748A8
:10108000C06AC0F30320871C112F00D114270898D1
:10109000B3FBF0F000FB07F33048C06A00F00F002C
:1010A000401C09900998B3FBF0F300E02D4B2B484E
:1010B0004068C0F383422948406800F0005008B1FE
:1010C00042F010020D2A05D103EB4300400000EB73
:1010D000530106E00F2A01D2921C00E0521C03FBD0
:1010E00002F101E01E4900BF00BF1C484068C0F388
:1010F000031504A8465D21FA06F418484068C0F3B9
:10110000022502A8465D24FA06FC14484068C0F394
:10111000C2251DF8056024FA06F80D9830B10128A3
:1011200006D0022806D003280AD106E00B9108E079
:101130000B9406E0CDF82CC003E0CDF82C8000E045
:1011400000BF00BF0B980EB0BDE8F08F000000009C
:101150000000000001020304060708090010024015
:1011600000127A0000093D00064A02EB901109685E
:1011700000F01F0301229A401143024B03EB90122F
:101180001160704700100240064A02EB9011096896
:1011900000F01F0301229A409143024B03EB90128F
:1011A0001160704700100240064A02EB9011096876
:1011B00000F01F0301229A401143024B03EB9012EF
:1011C000116070470010024000200021334A12686D
:1011D00042F48032314B1A6000BF401C2F4A126823
:1011E00002F4003119B94FF6FF729042F5D12B4A43
:1011F000126802F400320AB900BFFEE7274A5268BB
:10120000264B5A601A4652685A601A46526842F48F
:1012100080625A601A465268214B1A401F4B5A602E
:101220001A46526842F424125A601A46D26A1D4B7A
:101230001A401A4BDA621A46D26A1B4B1A43174BF2
:10124000DA621A46126842F080621A6000BF134ADE
:10125000126802F00062002AF9D0104A126842F0C7
:1012600080720E4B1A6000BF0C4A126802F00072C6
:10127000002AF9D0094A526822F00302074B5A604B
:101280001A46526842F002025A6000BF034A52688E
:1012900002F00802002AF9D0704700000010024056
:1012A000FFFFC0DF00F0FEFF3108010010B5FFF7BF
:1012B0008BFF10BD042808D14FF0E021096941F0EF
:1012C00004014FF0E022116107E04FF0E0210969CD
:1012D00021F004014FF0E0221161704710B56FF06A
:1012E0000400FFF7E7FF0A4800680A49B0FBF1F085
:1012F000094908700846007800EB4001C1EBC010B6
:101300004FF6FF7101EAC0000449088010BD0000DB
:101310001800002000127A000600002004000020BF
:101320002DE9F04704460D460027B846B946002689
:101330002A49601A8C4235D00CDC29482044E8B197
:10134000B0F5806F1FD0B0F5006F21D0B0F5406FC1
:1013500032D122E0B0F5806F29D0B0F5404F03D0F4
:10136000B0F5784F28D104E00320FFF747FE074689
:1013700023E00320FFF742FE07461EE00220FFF7AE
:101380003DFE074619E00220FFF738FE074614E04D
:101390000220FFF733FE07460FE00220FFF72EFE84
:1013A00007460AE00220FFF729FE074605E0022073
:1013B000FFF724FE074600E000BF00BF07EB550023
:1013C000B0FBF5F64FF6F07006EA000806F00F09DC
:1013D00048EA0900A060BDE8F087000000780040FE
:1013E00000BCFFBF10B540F20360FFF7BDFE40F246
:1013F0001270FFF7B9FE4FF48063032218211E48D4
:10140000FFF79EFA4FF40063032204211A48FFF706
:1014100097FA1A4800F03EF84FF4E1311748FFF709
:101420007FFF0021154800F018F90021134800F053
:1014300002F90021114800F0ECF800210F4800F0FB
:10144000B5F800210D4800F0A7F804210B4800F082
:10145000E8F80821094800F0F6F8084800F088F894
:1014600040F20531054800F0ABF800221146272074
:10147000FFF764FD10BD0000000C01400048004073
:1014800001464868C0F308007047C1F30802426093
:101490007047000010B504463349601A8C424DD0A5
:1014A0000CDC32482044E0B1B0F5806F22D0B0F5BA
:1014B000006F31D0B0F5406F52D136E0B0F5806F9B
:1014C00045D0B0F5404F03D0B0F5784F48D11AE081
:1014D00040F20E30FFF768FE40F20E30FFF754FE88
:1014E0003FE040F21140FFF75FFE40F21140FFF78E
:1014F0004BFE36E040F21240FFF756FE40F212403B
:10150000FFF742FE2DE041F61850FFF74DFE41F681
:101510001850FFF739FE24E040F21340FFF744FE75
:1015200040F21340FFF730FE1BE040F21440FFF79B
:101530003BFE40F21440FFF727FE12E041F61E602A
:10154000FFF732FE41F61E60FFF71EFE09E041F68E
:101550001F60FFF729FE41F61F60FFF715FE00E050
:1015600000BF00BF10BD00000078004000BCFFBFFE
:10157000C16841F40051C160704710B5024602EBEA
:101580009110006801F01F040123A340184008B126
:10159000012010BD0020FCE7426922F40072426184
:1015A000426901F400731A4342617047426922F4B0
:1015B00080724261426901F480731A43426170474C
:1015C00010B500EB9112126801F01F040123A34033
:1015D0001A4300EB91131A6010BD70B50246002348
:1015E0000024C1F38910105801F01F060125B540F1
:1015F00000EA050302EB91500068C1F3044601259F
:10160000B54000EA050414B10BB1012070BD002003
:10161000FCE7C26822F4C062C260C2680A43C260CA
:101620007047C26822F00402C260C26801F004037D
:101630001A43C2607047026922F440520261026993
:101640000A4302617047C26822F00802C260C268A1
:1016500001F008031A43C2607047C26822F4805246
:10166000C260C2680A43C260704700008C1600085E
:10167000000000202000000084040008AC160008D0
:1016800020000020E0870000940400080000000013
:10169000000000000000000000000000000000004A
:0C16A00000000000000E27070000000002
:04000005080001A945
:00000001FF
